:1000000014C02EC02DC02CC02BC02AC02AC028C0AE
:1000100027C026C025C061C023C022C021C020C087
:100020001FC01EC01DC045C07DC011241FBECFE52E
:10003000D1E0DEBFCDBF10E0A0E6B0E0E4EDF1E03E
:1000400002C005900D92A236B107D9F720E0A2E6D2
:10005000B0E001C01D92AC36B207E1F781D0B8C064
:10006000CFCF1F920F920FB60F9211248F939F93B1
:1000700080916400909165008F33910571F4109226
:100080006500109264008091620090916300019677
:10009000909363008093620005C001969093650081
:1000A000809364009F918F910F900FBE0F901F90CF
:1000B00018951F920F920FB60F9211248F939F9352
:1000C00081E090E090936700809366009F918F910C
:1000D0000F900FBE0F901F9018951F920F920FB6A2
:1000E0000F9211248F939F9380916A0090916B00DF
:1000F0000196843091052CF490936B0080936A00F4
:1001000004C010926B0010926A0081E090E090931E
:100110006100809360009F918F910F900FBE0F90B0
:100120001F9018951F920F920FB60F9211248F9364
:100130009F9385E090E090936100809360008091B0
:1001400068009091690080959095909369008093E4
:1001500068009F918F910F900FBE0F901F90189580
:1001600082E08ABB8FE787BB80E481BB10BE13BEF1
:1001700083B7856083BF789412BE89B7826089BFD8
:100180008BB788638BBF289A229A80B5806880BD20
:1001900080E090E4883028F4873011F08F5FFACF48
:1001A00088E012BA18BA2FE33DE043E02150304016
:1001B0004040E1F700C0000092BB18BA2FE33DE0D9
:1001C00043E0215030404040E1F700C00000E2CF62
:0401D000F894FFCFD1
:0201D400010028
:00000001FF
